:100000000C9462000C948A000C948A000C948A0070
:100010000C948A000C94FD040C948A000C948A00C1
:100020000C948A000C948A000C948A000C94860527
:100030000C948A000C948A000C948A000C948A0018
:100040000C94B3040C948A000C9481040C945B040B
:100050000C948A000C948A000C948A000C948A00F8
:100060000C948A000C948A000000000024002700F1
:100070002A0000000000250028002B0000000008D6
:10008000000201000003040700000000000000005F
:1000900000000000230026002900040404040404D6
:1000A0000404020202020202030303030303010227
:1000B00004081020408001020408102001020408F6
:1000C0001020980A11241FBECFEFD8E0DEBFCDBFAD
:1000D00022E0A0E2B1E001C01D92AB35B207E1F72A
:1000E00011E0A0E0B1E0E8E5FBE102C005900D926F
:1000F000A032B107D9F710E0C2E6D0E004C02197E2
:10010000FE010E94980BC136D107C9F70E94C206B2
:100110000C94AA0D0C940000AF92BF92CF92DF9284
:10012000EF92FF920F931F93CF93DF936C017B01AC
:100130008B01040F151FEB015E01AE18BF08C0173D
:10014000D10759F06991D601ED91FC910190F081B0
:10015000E02DC6010995892B79F7C501DF91CF9173
:100160001F910F91FF90EF90DF90CF90BF90AF90D5
:100170000895FC01538D448D252F30E0842F90E0AD
:10018000821B930B541710F0CF9608950197089592
:10019000FC01918D828D981761F0A28DAE0FBF2F5B
:1001A000B11D5D968C91928D9F5F9F73928F90E0B1
:1001B00008958FEF9FEF08952FB7F8948091B401C1
:1001C0009091B501A091B601B091B7012FBF809376
:1001D000C0019093C101A093C201B093C30188EB09
:1001E00091E00E94C80097FF26C02FB7F894809135
:1001F000B4019091B501A091B601B091B7012FBFA4
:100200004091C0015091C1016091C2017091C30140
:10021000841B950BA60BB70B4091BC015091BD01FF
:100220006091BE017091BF0184179507A607B707BB
:10023000B0F28FEF9FEF0895FC01918D828D98179A
:1002400031F0828DE80FF11D858D90E008958FEFDC
:100250009FEF0895FC01918D228D892F90E0805CA5
:100260009F4F821B91098F739927089588EB91E026
:100270000E942A0121E0892B09F420E0822F0895B1
:1002800080E090E0892B29F00E94360181110C94C6
:1002900000000895FC01A48DA80FB92FB11DA35A29
:1002A000BF4F2C91848D90E001968F739927848F96
:1002B000A689B7892C93A089B1898C9183708064B9
:1002C0008C93938D848D981306C00288F389E02D5A
:1002D00080818F7D80830895EF92FF920F931F930B
:1002E000CF93DF93EC0181E0888F9B8D8C8D9813E9
:1002F0001AC0E889F989808185FF15C09FB7F894F5
:10030000EE89FF896083E889F98980818370806440
:1003100080839FBF81E090E0DF91CF911F910F918B
:10032000FF90EF900895F62E0B8D10E00F5F1F4F9A
:100330000F731127E02E8C8D8E110CC00FB607FCA9
:10034000FACFE889F989808185FFF5CFCE010E9437
:100350004A01F1CFEB8DEC0FFD2FF11DE35AFF4F5A
:10036000F0829FB7F8940B8FEA89FB8980818062C5
:10037000CFCFCF93DF93EC01888D8823B9F0AA8982
:10038000BB89E889F9898C9185FD03C0808186FD50
:100390000DC00FB607FCF7CF8C9185FFF2CF80819F
:1003A00085FFEDCFCE010E944A01E9CFDF91CF91C9
:1003B0000895833081F028F4813099F08230A9F0DB
:1003C00008958730A9F08830C9F08430B1F4809165
:1003D00080008F7D03C0809180008F7780938000A4
:1003E000089584B58F7784BD089584B58F7DFBCF44
:1003F0008091B0008F778093B00008958091B00015
:100400008F7DF9CFCF93DF93282F30E0F901E458A7
:10041000FF4F8491F901E255FF4FD491F901E6565F
:10042000FF4FC491CC23A1F081110E94D901EC2F80
:10043000F0E0EE0FFF1FE057FF4FA591B491EC9154
:10044000ED2381E090E009F480E0DF91CF91089501
:1004500080E090E0FACF1F93CF93DF93282F30E016
:10046000F901E458FF4F8491F901E255FF4FD4910F
:10047000F901E656FF4FC491CC23A9F0162F811144
:100480000E94D901EC2FF0E0EE0FFF1FEE58FF4F56
:10049000A591B4918FB7F894EC91111108C0D09543
:1004A000DE23DC938FBFDF91CF911F910895DE2B68
:1004B000F8CFCF93DF9390E0FC01E255FF4F2491FA
:1004C00086569F4FFC0184918823D1F090E0880FDD
:1004D000991FFC01E859FF4FA591B491FC01EE581A
:1004E000FF4FC591D49161110EC09FB7F8948C91C4
:1004F000E22FE0958E238C932881E223E8839FBF2F
:10050000DF91CF9108958FB7F894EC91E22BEC93A3
:100510008FBFF6CF1F93CF93DF93182FEB0161E0CE
:100520000E945902209739F460E0812FDF91CF912A
:100530001F910C942B02CF3FD10511F461E0F5CF50
:10054000E12FF0E0E458FF4FE491E33031F140F463
:10055000E130B1F0E230E1F0C038D1057CF7E4CF12
:10056000E73029F1E83059F1E430B1F780918000AB
:10057000806280938000D0938B00C0938A0004C077
:1005800084B5806884BDC7BDDF91CF911F91089568
:1005900084B5806284BDC8BDF7CF8091800080683B
:1005A00080938000D0938900C0938800EDCF809124
:1005B000B00080688093B000C093B300E5CF809115
:1005C000B00080628093B000C093B400DDCFEF92A2
:1005D000FF920F931F93CF93DF93D82FC62FE42E54
:1005E00060E00E942B0260E08C2F0E942B0207E04B
:1005F00010E0F12C60E08C2F0E942B02B701002E3E
:1006000002C0759567950A94E2F761708D2F0E947C
:100610002B0261E08C2F0E942B0260E08D2F0E9444
:100620002B020150110930F760E08C2FDF91CF9140
:100630001F910F91FF90EF900C942B0260E088E0E7
:100640000E942B024091410169E070E08AE090E055
:100650000E94E7024091420169E070E08AE090E088
:100660000E94E7024091430169E070E08AE090E077
:100670000E94E70261E088E00C942B02CF93DF93A5
:10068000C0914A01D0914B01809143011C161D0677
:10069000ACF420912C0130912D0137FD21C0877FD2
:1006A000846080934301BE0186E00E948A02D09359
:1006B0002D01C0932C01DF91CF910895209781F0F7
:1006C00020912C0130912D01121613064CF08B7FD6
:1006D000886080934301662777276C1B7D0BE4CFEE
:1006E000837F8093430170E060E0DECFCF93DF93A0
:1006F000C0914C01D0914D01809143011C161D0603
:10070000ACF420912A0130912B0137FD21C08D7F5F
:10071000816080934301BE0185E00E948A02D093EC
:100720002B01C0932A01DF91CF910895209781F08A
:1007300020912A0130912B01121613064CF08E7F66
:10074000826080934301662777276C1B7D0BE4CF83
:100750008C7F8093430170E060E0DECFFC0101906C
:100760000020E9F73197AF01481B590BBC0188EB1A
:1007700091E00C948C008F929F92AF92BF920F9356
:100780001F93CF93DF93CDB7DEB7A1970FB6F89441
:10079000DEBF0FBECDBF19A2423008F44AE08E0181
:1007A0000F5D1F4F842E912CB12CA12CA50194011B
:1007B0000E94620BE62FB901CA01EA30F4F4E05D51
:1007C000D801EE938D01232B242B252B79F790E074
:1007D00080E0109719F0CD010E94AE03A1960FB6EC
:1007E000F894DEBF0FBECDBFDF91CF911F910F9167
:1007F000BF90AF909F908F900895E95CE1CF88E122
:1008000091E00C94AE03CF92DF92EF92FF92CF93E0
:10081000DF936C01990FEE08FF08F7FE19C06DE237
:1008200088EB91E00E946C01EC0166277727CB01F1
:100830006C197D098E099F094AE00E94BB038C0F49
:100840009D1FDF91CF91FF90EF90DF90CF900895A3
:100850004AE0C701B601DF91CF91FF90EF90DF90A2
:10086000CF900C94BB030F931F93CF93DF93EC01B6
:1008700088819981009759F02A813B812617370793
:1008800030F081E0DF91CF911F910F9108958B019E
:100890006F5F7F4F0E94C30C009759F09983888344
:1008A0001B830A832C813D81232B59F7FC01108285
:1008B000E8CF80E0E7CF1F920F920FB60F9211247E
:1008C0002F933F934F935F936F937F938F939F9358
:1008D000AF93BF93EF93FF9388EB91E00E944A019F
:1008E000FF91EF91BF91AF919F918F917F916F9108
:1008F0005F914F913F912F910F900FBE0F901F90DE
:1009000018951F920F920FB60F9211242F938F9369
:100910009F93EF93FF93E091C801F091C90180810B
:10092000E091CE01F091CF0182FD1BC090818091BA
:10093000D1018F5F8F732091D201821741F0E09136
:10094000D101F0E0E854FE4F958F8093D101FF91E3
:10095000EF919F918F912F910F900FBE0F901F904D
:1009600018958081F4CF1F920F920FB60F92112429
:100970002F933F938F939F93AF93BF938091B40135
:100980009091B501A091B601B091B70130913A01B3
:1009900023E0230F2D3758F50196A11DB11D20939B
:1009A0003A018093B4019093B501A093B601B0933E
:1009B000B7018091360190913701A0913801B09133
:1009C00039010196A11DB11D809336019093370125
:1009D000A0933801B0933901BF91AF919F918F914E
:1009E0003F912F910F900FBE0F901F90189526E802
:1009F000230F0296A11DB11DD2CF1F920F920FB6E9
:100A00000F9211242F933F934F935F936F937F9394
:100A10008F939F93AF93BF93EF93FF9384E00E94D4
:100A20000202909335018093340187E00E94020214
:100A3000909333018093320180913401909135017C
:100A40000197B9F48091300190913101892B89F49B
:100A500080914C0190914D01181619060CF046C07A
:100A600080913D0190913E01019690933E018093CB
:100A70003D0180913201909133010197B1F4809151
:100A80002E0190912F01892B81F480914A01909140
:100A90004B011816190694F580913B0190913C0189
:100AA000019690933C0180933B018091320190919B
:100AB000330190932F0180932E0180913401909106
:100AC00035019093310180933001FF91EF91BF91F7
:100AD000AF919F918F917F916F915F914F913F91D6
:100AE0002F910F900FBE0F901F901895892B09F230
:100AF00080913D0190913E010197B7CF892BA9F2DA
:100B000080913B0190913C010197CBCF1F920F92B6
:100B10000FB60F9211242F933F938F939F93809141
:100B20002801909129010196883C910581F19093CB
:100B30002901809328018091440190914501181664
:100B400019066CF5809126019091270101969093EA
:100B50002701809326012091260130912701809161
:100B60004401909145018217930744F410922701A4
:100B70001092260188B192E0892788B99F918F91C0
:100B80003F912F910F900FBE0F901F9018951092CC
:100B900029011092280181E08093B301CCCF4198C4
:100BA000EDCF71E0529A5398000000000000A0D0F1
:100BB00052989ED0A8940000000000004A9B93D059
:100BC000B2F088944B990894771F60F7529A80305E
:100BD00011F0539801C0539A00000000000088D023
:100BE0005298A894000000004A9B7DD081D000005C
:100BF0000000529A872F9927089580E2089508945B
:100C0000881F01C0880FB9F0529A00000000000050
:100C100018F40000539802C0539A00C069D052984B
:100C2000A8940000000000004A9B5DD012F48827C1
:100C300012C05ED0E7CF529A00000000539858D0FF
:100C4000992788275298A89400004A9B4CD07AF3A1
:100C50004B9B81E04DD000000000529A089581E046
:100C60000895529A539A44D0529842D04A9B3BD00E
:100C700053983ED008958F93F1E0E4EF8F918F93D6
:100C80004A9B31D0539A34D0BADF882321F4E9DF6C
:100C9000319709F0F3CF99270F9008950895529A4C
:100CA00027D0539825D0529823D04A9B1CD0539AD2
:100CB0001FD0A5DF089581E008954A9B14D0539A70
:100CC00017D09DDF089581E00895539852985B985E
:100CD0005A98882799274B9B08954A9B089581E04D
:100CE000089581E008954A9BFECFA8940895089541
:100CF00097E19A95F1F708950895CF92DF92EF92D8
:100D0000FF920F931F93E82FF92F05C0015011098F
:100D10002109310961F1908196239417B9F305C037
:100D2000015011092109310911F190819623941381
:100D3000F7CFC12CD12CE12CF12C0AC08FEFC81AAF
:100D4000D80AE80AF80A0C151D052E053F0579F0AA
:100D500080818623841791F36C2D7D2D8E2D9F2D00
:100D60001F910F91FF90EF90DF90CF90089560E07A
:100D700070E080E090E01F910F91FF90EF90DF9086
:100D8000CF900895CF93DF93CDB7DEB728970FB6F6
:100D9000F894DEBF0FBECDBF789484B5826084BD69
:100DA00084B5816084BD85B5826085BD85B581606F
:100DB00085BD80916E00816080936E0010928100ED
:100DC00080918100826080938100809181008160A8
:100DD0008093810080918000816080938000809169
:100DE000B10084608093B1008091B00081608093F5
:100DF000B00080917A00846080937A0080917A00BC
:100E0000826080937A0080917A00816080937A007A
:100E100080917A00806880937A001092C100E091FE
:100E2000C801F091C90182E08083E091C401F09192
:100E3000C5011082E091C601F091C70180E1808375
:100E40001092D001E091CC01F091CD0186E0808339
:100E5000E091CA01F091CB01808180618083E091B3
:100E6000CA01F091CB01808188608083E091CA0142
:100E7000F091CB01808180688083E091CA01F0917C
:100E8000CB0180818F7D808360E087E00E945902E2
:100E900061E086E00E94590260E084E00E9459020D
:100EA00061E085E00E94590261E086E00E945902FB
:100EB00061E08BE00E94590260E08CE00E945902E0
:100EC00061E08AE00E94590261E089E00E945902D3
:100ED00061E088E00E94590261E08FE00E945902BF
:100EE0008FEF809342018093410180EF8093430113
:100EF00061E08DE00E94590280916D0080688093CE
:100F00006D0080916D00806980936D00DA9A809108
:100F1000680084608093680080916D008061809398
:100F20006D0080916D00806980936D00DA9A8091E8
:100F30006800846080936800F89480917A008460EF
:100F400080937A0080917A008D7F80937A008091DF
:100F50007A008E7F80937A00109280001092810038
:100F6000109285001092840083E690E090938900AF
:100F700080938800809181008860809381008091B7
:100F8000810082608093810080916F0082608093F5
:100F90006F00789480916F00826080936F0030E1E1
:100FA000232E37E2332E44E6442E512C5AE0A52E50
:100FB000B12CEE24E394FF24FA94CC24CA94D12CCF
:100FC0008091B301813009F041C22D9A1092B30192
:100FD00088EB91E00E942A01181619060CF0ECC16A
:100FE0001A8219821C821B821E821D8270E060E0C0
:100FF000CE0101960E94330429813A8181112EC0CD
:101000002115310519F0C9010E943A0C1A82198282
:101010001E821D821C821B820E94DC000D811E81AB
:1010200097FD24C08A30910509F18F8318860F5FE0
:101030001F4FB801CE0101960E943304882361F34B
:1010400029813A818D819E81BE01695F7F4F820F28
:10105000931F0E94940D1E830D83DECF1E821D827E
:101060006EE171E0C9010E94940DD6CF0115110502
:1010700009F099C010924E01F801E25BFE4F108218
:101080006AE171E08EE491E00E94E30A77247A94A9
:10109000009709F48BC16AE370E00E94890D009704
:1010A00009F47AC0FC01108222918F012C36D1F410
:1010B0008C010F5F1F4FC8010E94C50A8F3F910529
:1010C00011F00CF083C090934D0180934C018091FE
:1010D0004C0190914D0181309F4F24F4F0924D01CD
:1010E000E0924C01F80180818237C9F40E5F1F4FF6
:1010F000C8010E94C50A8F3F910511F00CF06BC02A
:1011000090934B0180934A0180914A0190914B0149
:1011100081309F4F24F4F0924B01E0924A01F80194
:1011200080818436D1F40E5F1F4FC8010E94C50A2A
:1011300090934901809348012091480130914901E1
:101140002115310509F04CC080914301806E8093D8
:1011500043017092420170924101F801808183370E
:10116000D9F4C80102960E94C50A90934701809362
:1011700046018091460190914701181619060CF01E
:1011800010C16091460170914701C1010E944E0B50
:1011900070934501609344016AE171E090E080E062
:1011A0000E94E30A75CF93E6892E912C0336110530
:1011B00008F4480169817A81A4018EE491E00E94DB
:1011C0009B0DF401E25BFE4F108256CFD0924D0191
:1011D000C0924C017CCFD0924B01C0924A0194CF77
:1011E000C901B2010E944E0BFB013197F7FDB5CF4B
:1011F0004CE946034001479F900C1124820E931E38
:10120000C401B5010E944E0BCB01019746EF460386
:101210009001479F300D1124820E931EE230F1059C
:1012200009F456C084F4309721F1319709F095CF35
:10123000209142010097E1F518141904BCF52D7FA7
:10124000209342018ACFE430F10509F47DC00CF40B
:101250005AC0359709F081CF30914101009709F0CC
:1012600090C0181419040CF08AC03F7D30934101DE
:1012700074CF20914301009749F41814190424F401
:101280002F7D2093430169CF2062FBCF019739F472
:101290001814190414F42F7BF4CF2064F2CF18141F
:1012A000190414F42F77EDCF2068EBCF2260C8CF5C
:1012B000019739F41814190414F42B7FC1CF24605A
:1012C000BFCF1814190414F4277FBACF2860B8CF01
:1012D00020914201009739F41814190414F42F7E58
:1012E000AFCF2061ADCF019739F41814190414F46D
:1012F0002F7DA6CF2062A4CF1814190414F42F7BDD
:101300009FCF20649DCF009759F48091420118141B
:10131000190424F48F77809342011FCF8068FBCF9C
:1013200020914101019749F41814190424F42E7FE7
:101330002093410112CF2160FBCF1814190414F43B
:101340002D7FF6CF2260F4CF20914101009739F430
:101350001814190414F42B7FEBCF2460E9CF019704
:1013600039F41814190414F4277FE2CF2860E0CF71
:101370001814190414F42F7EDBCF2061D9CF30620A
:1013800075CF019739F41814190414F43F7B6ECF0C
:1013900030646CCF1814190414F43F7767CF3068A9
:1013A00065CF1092450110924401F6CE89819A8151
:1013B000009711F00E943A0C0E9476030E943E03AF
:1013C0000E941E0360E08BE00E942B028FE090E001
:1013D0000197F1F761E08BE00E942B0283E290E03D
:1013E0000197F1F760E08BE00E942B02EAEBF0E05E
:1013F0006491E6EAF0E0E491F0E0EE0FFF1FE057C1
:10140000FF4F8591949108E813E120E030E0462FEA
:101410000E947D06611571058105910529F06F5FB8
:101420007F4F8F4F9F4F9F707093400160933F019C
:101430008091B2018F5F8A30B1F08093B2010E9437
:1014400076030E943E030E941E032D9880E090E0E8
:10145000892B09F4B5CD0E943601882309F4ADCD5E
:101460000E940000AACD1092B20180913D0190919E
:101470003E010E94030410923E0110923D010E9421
:10148000FF0380913B0190913C010E940304109264
:101490003C0110923B010E94FF0380913F0190911B
:1014A00040010E9403040E94FF0390E080E00E943C
:1014B00003040E94FF0390E080E00E9403040E9466
:1014C000FF0390E080E00E9403040E94FF034AE0D3
:1014D00064E270E080E090E00E94BB036EE288EB83
:1014E00091E00E946C014AE065E070E080E090E0ED
:1014F0000E94BB034AE063E070E080E090E00E945D
:10150000BB030E94FF0390E080E00E9403040E945E
:10151000FF0390E080E00E9403040E94FF0390E03C
:1015200080E00E9403048CE191E00E94AE0387CF2B
:10153000E8EBF1E01382128288EE93E0A0E0B0E0E5
:1015400084839583A683B7838AE091E09183808327
:1015500085EC90E09587848784EC90E09787868778
:1015600080EC90E0918B808B81EC90E0938B828B70
:1015700082EC90E0958B848B86EC90E0978B868B49
:10158000118E128E138E148E0895FC0188279927D0
:10159000E89421912032E9F3293010F02E30C8F37D
:1015A0002B3241F02D3239F4689404C00E940F0BA5
:1015B000820F911D219120532A30C0F31EF4909583
:1015C00081959F4F089545E552E00E94E80A0895ED
:1015D000FA01A191B081009719F41097E1F0CD01C3
:1015E000DC01CD010D90002011F4C00113C0FB01FE
:1015F0002191222319F02015D9F7F3CFFB01219176
:10160000201519F41E92119606C02223C1F70D90E1
:101610000020A1F7D001FA01A193B08308957AE0E8
:10162000979F902D879F802D910D112408952F92C3
:101630003F924F925F926F927F928F929F92AF9262
:10164000BF92CF92DF92EF92FF920F931F93CF93AF
:10165000DF93CDB7DEB7CA1BDB0B0FB6F894DEBF46
:101660000FBECDBF09942A88398848885F846E846C
:101670007D848C849B84AA84B984C884DF80EE80B6
:10168000FD800C811B81AA81B981CE0FD11D0FB6BF
:10169000F894DEBF0FBECDBFED01089597FB072E76
:1016A00016F4009407D077FD09D00E94840B07FC44
:1016B00005D03EF4909581959F4F08957095619562
:1016C0007F4F0895A1E21A2EAA1BBB1BFD010DC07E
:1016D000AA1FBB1FEE1FFF1FA217B307E407F507E2
:1016E00020F0A21BB30BE40BF50B661F771F881FBE
:1016F000991F1A9469F760957095809590959B0154
:10170000AC01BD01CF010895AA1BBB1B51E107C06D
:10171000AA1FBB1FA617B70710F0A61BB70B881F81
:10172000991F5A95A9F780959095BC01CD01089510
:10173000EE0FFF1F0590F491E02D09940F931F9376
:10174000CF93DF938230910510F482E090E0E09136
:101750005902F0915A0230E020E0B0E0A0E030976A
:1017600099F42115310509F44AC0281B390B24309E
:101770003105D8F58A819B816115710589F1FB01DD
:1017800093838283FE0111C04081518102811381C4
:1017900048175907E0F04817590799F4109761F076
:1017A00012960C93129713961C933296CF01DF91E9
:1017B000CF911F910F9108950093590210935A02EF
:1017C000F4CF2115310551F04217530738F0A90124
:1017D000DB019A01BD01DF01F801C1CFEF01F9CFB3
:1017E00090935A0280935902CDCFFE01E20FF31F6E
:1017F000819391932250310939832883D7CF209147
:10180000570230915802232B41F42091020130916C
:101810000301309358022093570220910001309128
:1018200001012115310541F42DB73EB74091040166
:1018300050910501241B350BE0915702F09158029D
:10184000E217F307A0F42E1B3F0B2817390778F097
:10185000AC014E5F5F4F2417350748F04E0F5F1FF6
:101860005093580240935702819391939FCFF0E099
:10187000E0E09CCFCF93DF930097E9F0FC01329733
:1018800013821282A0915902B0915A02ED0130E008
:1018900020E01097A1F420813181820F931F2091C5
:1018A0005702309158022817390709F061C0F093A8
:1018B0005802E0935702DF91CF910895EA01CE17C5
:1018C000DF07E8F54A815B819E0141155105B1F7BB
:1018D000E901FB83EA8349915991C40FD51FEC17A5
:1018E000FD0761F4808191810296840F951FE901C3
:1018F00099838883828193819B838A83F0E0E0E0EF
:1019000012968D919C9113970097B9F52D913C916A
:101910001197CD010296820F931F209157023091AB
:1019200058022817390739F6309751F510925A02A4
:1019300010925902B0935802A0935702BCCFD383A0
:10194000C28340815181840F951FC817D90761F464
:101950004E5F5F4F88819981480F591F51834083A3
:101960008A819B81938382832115310509F0B0CF51
:10197000F0935A02E09359029ECFFD01DC01C0CFE3
:1019800013821282D7CFB0E0A0E0E9ECFCE00C9427
:10199000190B8C01009751F4CB010E949E0B8C0116
:1019A000C801CDB7DEB7E0E10C94350BFC01E60FC2
:1019B000F71F9C0122503109E217F30708F49DC07C
:1019C000D901CD91DC911197C617D70798F0C53092
:1019D000D10530F3CE0104978617970708F3C61B8D
:1019E000D70B2297C193D1936D937C93CF010E9423
:1019F0003A0CD6CF5B01AC1ABD0A4C018C0E9D1E71
:101A0000A0915902B0915A02512C412CF12CE12C99
:101A1000109731F5809157029091580288159905D9
:101A200009F05CC04616570608F058C080910001C6
:101A300090910101009741F48DB79EB74091040148
:101A400050910501841B950BE817F90708F055C064
:101A5000F0935802E0935702F90171836083A0CF9D
:101A60008D919C91119712966C90129713967C9081
:101A70001397A815B90559F56C0142E0C40ED11CA5
:101A8000CA14DB0420F1AC014A195B09DA01129691
:101A9000159780F06282738251834083D9016D93E0
:101AA0007C93E114F10471F0D7011396FC93EE934B
:101AB000129776CF22968C0F9D1FF9019183808318
:101AC000F301EFCFF0935A02E093590269CF481621
:101AD000590608F42C017D01D3019ACFCB010E9455
:101AE0009E0B7C01009749F0AE01B8010E94800D69
:101AF000C8010E943A0C870153CF10E000E050CF9C
:101B0000FB01DC0102C001900D9241505040D8F71A
:101B10000895FC018191861721F08823D9F7992730
:101B200008953197CF010895FB01DC0101900D92DA
:101B30000020E1F70895FB01DC014150504048F0DE
:101B400001900D920020C9F701C01D9241505040F4
:081B5000E0F70895F894FFCFBF
:101B580000005B028000000000006C018C00B900EE
:101B6800B9012A01C8001C012C003B000D0A000025
:00000001FF
